{
  "_format": "hh-sol-artifact-1",
  "contractName": "Lottery",
  "sourceName": "contracts/Lottery.sol",
  "abi": [
    {
      "inputs": [],
      "stateMutability": "nonpayable",
      "type": "constructor"
    },
    {
      "inputs": [],
      "name": "enter",
      "outputs": [],
      "stateMutability": "payable",
      "type": "function"
    },
    {
      "inputs": [],
      "name": "getBalance",
      "outputs": [
        {
          "internalType": "uint256",
          "name": "",
          "type": "uint256"
        }
      ],
      "stateMutability": "view",
      "type": "function"
    },
    {
      "inputs": [],
      "name": "getPlayers",
      "outputs": [
        {
          "internalType": "address payable[]",
          "name": "",
          "type": "address[]"
        }
      ],
      "stateMutability": "view",
      "type": "function"
    },
    {
      "inputs": [],
      "name": "getRandomNumber",
      "outputs": [
        {
          "internalType": "uint256",
          "name": "",
          "type": "uint256"
        }
      ],
      "stateMutability": "view",
      "type": "function"
    },
    {
      "inputs": [],
      "name": "owner",
      "outputs": [
        {
          "internalType": "address",
          "name": "",
          "type": "address"
        }
      ],
      "stateMutability": "view",
      "type": "function"
    },
    {
      "inputs": [],
      "name": "pickWinner",
      "outputs": [],
      "stateMutability": "nonpayable",
      "type": "function"
    },
    {
      "inputs": [
        {
          "internalType": "uint256",
          "name": "",
          "type": "uint256"
        }
      ],
      "name": "players",
      "outputs": [
        {
          "internalType": "address payable",
          "name": "",
          "type": "address"
        }
      ],
      "stateMutability": "view",
      "type": "function"
    }
  ],
  "bytecode": "0x608060405234801561001057600080fd5b50336000806101000a81548173ffffffffffffffffffffffffffffffffffffffff021916908373ffffffffffffffffffffffffffffffffffffffff1602179055506108da806100606000396000f3fe6080604052600436106100705760003560e01c80638da5cb5b1161004e5780638da5cb5b146100e2578063dbdff2c11461010d578063e97dcb6214610138578063f71d96cb1461014257610070565b806312065fe0146100755780635d495aea146100a05780638b5b9ccc146100b7575b600080fd5b34801561008157600080fd5b5061008a61017f565b6040516100979190610560565b60405180910390f35b3480156100ac57600080fd5b506100b5610187565b005b3480156100c357600080fd5b506100cc6102e3565b6040516100d9919061066b565b60405180910390f35b3480156100ee57600080fd5b506100f7610371565b60405161010491906106ae565b60405180910390f35b34801561011957600080fd5b50610122610395565b60405161012f9190610560565b60405180910390f35b6101406103e9565b005b34801561014e57600080fd5b50610169600480360381019061016491906106fa565b610461565b6040516101769190610736565b60405180910390f35b600047905090565b60008054906101000a900473ffffffffffffffffffffffffffffffffffffffff1673ffffffffffffffffffffffffffffffffffffffff163373ffffffffffffffffffffffffffffffffffffffff16146101df57600080fd5b60006001805490506101ef610395565b6101f99190610780565b90506001818154811061020f5761020e6107b1565b5b9060005260206000200160009054906101000a900473ffffffffffffffffffffffffffffffffffffffff1673ffffffffffffffffffffffffffffffffffffffff166108fc479081150290604051600060405180830381858888f1935050505015801561027f573d6000803e3d6000fd5b50600067ffffffffffffffff81111561029b5761029a6107e0565b5b6040519080825280602002602001820160405280156102c95781602001602082028036833780820191505090505b50600190805190602001906102df9291906104a0565b5050565b6060600180548060200260200160405190810160405280929190818152602001828054801561036757602002820191906000526020600020905b8160009054906101000a900473ffffffffffffffffffffffffffffffffffffffff1673ffffffffffffffffffffffffffffffffffffffff168152602001906001019080831161031d575b5050505050905090565b60008054906101000a900473ffffffffffffffffffffffffffffffffffffffff1681565b60008060009054906101000a900473ffffffffffffffffffffffffffffffffffffffff16426040516020016103cb929190610878565b6040516020818303038152906040528051906020012060001c905090565b662386f26fc1000034116103fc57600080fd5b6001339080600181540180825580915050600190039060005260206000200160009091909190916101000a81548173ffffffffffffffffffffffffffffffffffffffff021916908373ffffffffffffffffffffffffffffffffffffffff160217905550565b6001818154811061047157600080fd5b906000526020600020016000915054906101000a900473ffffffffffffffffffffffffffffffffffffffff1681565b828054828255906000526020600020908101928215610519579160200282015b828111156105185782518260006101000a81548173ffffffffffffffffffffffffffffffffffffffff021916908373ffffffffffffffffffffffffffffffffffffffff160217905550916020019190600101906104c0565b5b509050610526919061052a565b5090565b5b8082111561054357600081600090555060010161052b565b5090565b6000819050919050565b61055a81610547565b82525050565b60006020820190506105756000830184610551565b92915050565b600081519050919050565b600082825260208201905092915050565b6000819050602082019050919050565b600073ffffffffffffffffffffffffffffffffffffffff82169050919050565b60006105d2826105a7565b9050919050565b6105e2816105c7565b82525050565b60006105f483836105d9565b60208301905092915050565b6000602082019050919050565b60006106188261057b565b6106228185610586565b935061062d83610597565b8060005b8381101561065e57815161064588826105e8565b975061065083610600565b925050600181019050610631565b5085935050505092915050565b60006020820190508181036000830152610685818461060d565b905092915050565b6000610698826105a7565b9050919050565b6106a88161068d565b82525050565b60006020820190506106c3600083018461069f565b92915050565b600080fd5b6106d781610547565b81146106e257600080fd5b50565b6000813590506106f4816106ce565b92915050565b6000602082840312156107105761070f6106c9565b5b600061071e848285016106e5565b91505092915050565b610730816105c7565b82525050565b600060208201905061074b6000830184610727565b92915050565b7f4e487b7100000000000000000000000000000000000000000000000000000000600052601260045260246000fd5b600061078b82610547565b915061079683610547565b9250826107a6576107a5610751565b5b828206905092915050565b7f4e487b7100000000000000000000000000000000000000000000000000000000600052603260045260246000fd5b7f4e487b7100000000000000000000000000000000000000000000000000000000600052604160045260246000fd5b60008160601b9050919050565b60006108278261080f565b9050919050565b60006108398261081c565b9050919050565b61085161084c8261068d565b61082e565b82525050565b6000819050919050565b61087261086d82610547565b610857565b82525050565b60006108848285610840565b6014820191506108948284610861565b602082019150819050939250505056fea2646970667358221220a7deb93f994b34a408988d8e793594c1cbe9c9d23caf931ef4fdd6aa3808836064736f6c63430008110033",
  "linkReferences": {},
  "deployedLinkReferences": {}
}